:020000040800F2
:10000000001000206D030008FB2900085527000898
:10001000F9290008630500086138000800000000A5
:10002000000000000000000000000000412C00085B
:100030006505000800000000FD290008432C0008A9
:100040008703000887030008870300088703000868
:100050008703000887030008870300088703000858
:100060008703000887030008870300088703000848
:100070008703000887030008870300088703000838
:100080008703000887030008870300088703000828
:100090008703000887030008870300088703000818
:1000A000870300089D2D00088703000887030008C8
:1000B00087030008B52D0008C12D0008870300083C
:1000C00087030008870300088703000887030008E8
:1000D00087030008870300088703000887030008D8
:1000E000870300088703000800000000870300085A
:1000F00087030008870300088703000887030008B8
:1001000087030008870300088703000887030008A7
:100110008703000887030008870300088703000897
:100120008703000887030008870300088703000887
:100130008703000887030008870300088703000877
:1001400000000000000000000000000000000000AF
:100150008703000887030008870300088703000857
:100160008703000887030008870300088703000847
:1001700087030008870300088703000800000000C9
:100180008703000887030008870300088703000827
:100190008703000887030008870300088703000817
:1001A0008703000887030008870300080000000099
:1001B00087030008870300088703000887030008F7
:1001C000870300088703000800000000000000000B
:1001D000000000000000000087030008000000008D
:1001E000000000000000000000000000000000000F
:1001F00000000000000000008703000887030008DB
:100200008703000887030008000000008703000838
:100210008703000887030008870300088703000896
:1002200087030008000000008703000800000000AA
:100230008703000887030008000000008703000808
:100240008703000887030008870300088703000866
:100250008703000887030008870300088703000856
:100260008703000887030008870300088703000846
:1002700087030008870300088703000800000000C8
:100280008703000887030008870300088703000826
:10029000000000008703000887030008000000003A
:1002A0000000000087030008870300088703000898
:1002B00087030008870300088703000887030008F6
:1002C00087030008A92D00088703000800F002F842
:1002D00000F03CF80AA090E8000C82448344AAF1A4
:1002E0000107DA4501D100F031F8AFF2090EBAE8A2
:1002F0000F0013F0010F18BFFB1A43F0010318475A
:100300003036000060360000103A24BF78C878C14B
:10031000FAD8520724BF30C830C144BF04680C600B
:10032000704700000023002400250026103A28BF53
:1003300078C1FBD8520728BF30C148BF0B60704757
:100340001FB503F0D4FA1FBD10B510BD00F0CFF8F3
:100350001146FFF7F5FF03F095FA00F0EDF803B44E
:10036000FFF7F2FF03BC00F0F5F8000009488047F2
:1003700009480047FEE7FEE7FEE7FEE7FEE7FEE787
:10038000FEE7FEE7FEE7FEE704480549054A064B9F
:1003900070470000DD2C0008CD0200083802002460
:1003A00000100020380400240000002053EA020C52
:1003B00000F069802DE9F04B4FF00006002B1FBFC5
:1003C000B3FA83F503FA05F424FA05F65E4012BF8A
:1003D0001643B2FA82F502FA05F4C5F120051EBFF4
:1003E00022FA05FC44EA0C04203556EA044C4FEA94
:1003F000144418BF641C4FF000084FF000099042ED
:1004000071EB030C39D3002919BFB1FA81F701FA56
:1004100007F6B0FA80F700FA07F6C7F120071EBF0B
:1004200020FA07FC46EA0C062037B6FBF4FCA7EBE3
:100430000507103F07F01F0BCBF120060CFA0BFB52
:100440002CFA06F644BFB3460026202FA4BF5E4612
:100450004FF0000B5BEA060C08BF4FF0010B19EBE5
:100460000B09ABFB027C48EB0608C01B06FB02CC69
:100470000BFB03CC71EB0C01C1E70B460246414676
:100480004846BDE8F08B13B54FF000004FF0000177
:10049000AFF30080BDE81C4070474FF0000200B58C
:1004A000134694469646203922BFA0E80C50A0E897
:1004B0000C50B1F12001BFF4F7AF090728BFA0E845
:1004C0000C5048BF0CC05DF804EB890028BF40F811
:1004D000042B08BF704748BF20F8022B11F0804F53
:1004E00018BF00F8012B704770477047704775467A
:1004F00000F02CF8AE4605006946534620F0070090
:10050000854618B020B5FFF73FFFBDE820404FF00B
:1005100000064FF000074FF000084FF0000B21F0ED
:100520000701AC46ACE8C009ACE8C009ACE8C009BA
:10053000ACE8C0098D46704710B50446AFF30080A3
:100540002046BDE81040FFF70ABF00000048704792
:10055000D801002401491820ABBEFEE726000200A6
:100560007047FEE7704772B6FEE700002DE9F84FCE
:1005700003247A4D00234FF001094FF0B04B4FF0A8
:100580000F0AE4E009FA03F6324078D00F7907F059
:100590000307012F01D0022F1AD187684FEA430EBB
:1005A000D1F80CC004FA0EF827EA08070CFA0EFC82
:1005B0004CEA070CC0F808C0476891F804C0B7437C
:1005C000CCF3001C0CFA03FC4CEA070CC0F804C086
:1005D0000E79F643B6070BD0C6684FEA43088F681A
:1005E00004FA08FC26EA0C0607FA08F73743C76046
:1005F0000E7906F00306022E12D1DE080F694FEACB
:10060000437C00EB8606B646366A4FEADC6C0AFA93
:100610000CF807FA0CF726EA08063743CEF82070E4
:100620000F7906684FEA430807F0030704FA08FC4D
:1006300007FA08F726EA0C06374307604E6816F4F7
:10064000403F1CD0464E376847F002073760366897
:100650009F0706F00206009623F0030606F1B04657
:10066000B6463F0FD6F80864DFF8F8800AFA07FCB0
:10067000404526EA0C0603D14FF0000C3AE065E055
:10068000DFF8E4C0604502D14FF0010C32E0DFF842
:10069000DCC0604502D14FF0020C2BE0DFF8D0C087
:1006A000604502D14FF0030C24E0DFF8C8C060457C
:1006B00002D14FF0040C1DE0DFF8BCC0604502D150
:1006C0004FF0050C16E0DFF8B4C0604502D14FF0E2
:1006D000060C0FE0DFF8A8C0604502D14FF0070C10
:1006E00008E0DFF8A0C0604502D14FF0090C01E03E
:1006F0004FF00A0C0CFA07FC4CEA060CCEF808C4C2
:100700004F68DBF80060FF0226EA020600D51643B8
:100710005F46CBF80060D1F804C0DBF804605FEA04
:100720008C2C26EA020600D516437E606E684F6860
:1007300026EA0206BF0300D516436E602E684F6896
:1007400026EA0206FF0300D516432E605B1C0A68EA
:1007500032FA03F67FF416AFBDE8F88F8000005838
:10076000F4440258000002580004025800080258DD
:10077000000C0258001002580014025800180258C9
:10078000001C0258002402580AB181617047090414
:10079000FBE700000148806870470000000000246B
:1007A000024881680278114481607047000000248B
:1007B000032010B500F0F6F801F0C6F80F4A104912
:1007C00014681368C4F3032203F00F038A5CC95C46
:1007D00002F01F0201F01F01D0400A4A20FA01F185
:1007E0001160094908600F2000F010F808B10120DD
:1007F00010BD00F09BF8002010BD00001844025806
:1008000020390008100000240C00002410B5102826
:1008100004468AB02AD200220146192000F0A2F82C
:10082000192000F091F8154804601548016841F05E
:1008300001010160006808A900F001000990684604
:1008400001F00EF801F06EF80E49400000220E4C47
:10085000B0FBF1F10D4840F2E7330460C0E9033228
:10086000491EC0E9011201F0FDFB10B101200AB0E0
:1008700010BD064801F028FCF9E700000400002440
:10088000F044025840420F00000001408C01002457
:10089000154BF0B5083B427813491A600B680A1FE4
:1008A00023F001030B6043681360057BC67A827AEC
:1008B000437B2D07847B45EA0665C77B90F809C01A
:1008C000067A90F800E045EAC24040EA834040EAF8
:1008D000444040EA074040EA0C2040EA460040EA33
:1008E0000E000860F0BD0000A0ED00E0BFF35F8FD8
:1008F000044800210368034A23F480330360703204
:100900001160704724ED00E0074A40F001000649FD
:1009100070321060086840F480300860BFF34F8F79
:10092000BFF36F8F7047000024ED00E0054808B565
:10093000016841F002010160006800F002000090CF
:1009400008BD0000F4440258002809DB410900F00A
:100950001F028900012001F1E0219040C1F800014F
:10096000704700000E4BF0B41B680D46C3F3022322
:10097000C3F10706042E00D90426191D072901D248
:10098000002300E0DB1E012404FA06F19C40491E0E
:100990002940641E994014402143F0BC02F061BF1D
:1009A0000CED00E0064900F0070210B54FF6FF0419
:1009B0000868044B204040EA02201843086010BD3C
:1009C0000CED00E00000FA05134970B50A68D24347
:1009D000520705D5096801F00701814213D118E0DB
:1009E0000A6822F0070202430A60FFF7D3FE0A4DAD
:1009F0004FF47A760446083D07E000BFFFF7CAFED1
:100A0000001BB04201D9012070BD2868C04380049A
:100A1000F4D4002070BD00000C48025810B500F05E
:100A20004DFF05490968054AC1F30211515C01F007
:100A30001F01C84010BD00002044025820390008A2
:100A4000494930B5484C0B1D0A68143409681D68C3
:100A5000246802F00303C5F30012C1F30531C4F3A7
:100A6000CC04002914FB02F200EE102AF8EE400A32
:100A700075D03F4A9FED3D1AB7EE000A6BB1DFED2E
:100A80003D1A012B01D0022B64D002EE101A11681E
:100A9000F8EE422A81EEA22A21E0334C283C23685A
:100AA0009B0612D5344B246801EE901A1168C4F3EA
:100AB000C104F8EE612AE34001EE903AC1F3080167
:100AC000F8EE611A81EEA22A0BE001EE901ADFED3A
:100AD0002B2A00BFF8EE611A116882EEA12AC1F339
:100AE000080101EE901A1168F8EE611A40EE811AC1
:100AF00071EE800A62EE200AC1F3462101EE101A5F
:100B0000B8EE411A31EE001AC0EE811ABCEEE11ABD
:100B100080ED001A1168C1F3064101EE101AB8EE1B
:100B2000411A31EE001AC0EE811ABCEEE11A80EDD6
:100B3000011A1168C1F3066101EE101AB8EE411AEC
:100B400031EE000A80EE801ABCEEC10A80ED020A86
:100B500030BD04E001EE901ADFED092ABAE700216A
:100B6000016041608160F3E72844025800000039C9
:100B7000384402580024744A0090D0030024744C76
:100B800020BCBE4B494930B5484C0B1D0A681C348B
:100B900009681D68246802F00303C5F30022C1F34D
:100BA0000551C4F3CC04002914FB02F200EE102A14
:100BB000F8EE400A75D03F4A9FED3D1AB7EE000AA5
:100BC0006BB1DFED3D1A012B01D0022B64D002EE98
:100BD000101A1168F8EE422A81EEA22A21E0334C65
:100BE000283C23689B0612D5344B246801EE901AEA
:100BF0001168C4F3C104F8EE612AE34001EE903AB3
:100C0000C1F30801F8EE611A81EEA22A0BE001EEB1
:100C1000901ADFED2B2A00BFF8EE611A116882EE00
:100C2000A12AC1F3080101EE901A1168F8EE611AC9
:100C300040EE811A71EE800A62EE200AC1F346216D
:100C400001EE101AB8EE411A31EE001AC0EE811A08
:100C5000BCEEE11A80ED001A1168C1F3064101EE05
:100C6000101AB8EE411A31EE001AC0EE811ABCEE2D
:100C7000E11A80ED011A1168C1F3066101EE101A44
:100C8000B8EE411A31EE000A80EE801ABCEEC10ABD
:100C900080ED020A30BD04E001EE901ADFED092A72
:100CA000BAE70021016041608160F3E728440258FF
:100CB00000000039404402580024744A0090D003D8
:100CC0000024744C20BCBE4B2DE9FE4F0546DFF8D6
:100CD00000A450F8081B0024FD4FC943019005F102
:100CE000280026460AF1240A009008011DD4686EE7
:100CF00050B1B0F5801F0CD0B0F5001F0ED0B0F58C
:100D0000401F1ED001240FE0386840F400303860E6
:100D100017E00198022101F073FE03E00098022120
:100D200001F0FEFE04000CD026462888C043C00512
:100D300023D4A86D05281ED2DFE800F00C11161B85
:100D40001B006A6EDAF8001021F440111143CAF852
:100D50000010EAE7386840F40030386009E0019894
:100D6000002101F04DFE03E00098002101F0D8FEC3
:100D70000446C4B100E0012426462888DFF85083E9
:100D8000C04308F12C0840052FD4D5F8A400B0F5D5
:100D9000C00F28D010DCB8B1B0F5001F19D0B0F5E5
:100DA000800F0FD11AE0AA6DDAF8001021F00701C8
:100DB0001143CAF80010E0E7B0F5000F13D0B0F50A
:100DC000200F10D001240FE0386840F40030386064
:100DD00009E00198002101F013FE03E000980021D2
:100DE00001F09EFE044694B126462888C0430005C3
:100DF00030D4D5F8A800B0F1407F29D011DCC0B1C3
:100E0000B0F1807F1AD0B0F1007F10D11BE0D5F88F
:100E1000A420D8F8001021F460011143C8F8001094
:100E2000E3E7B0F1806F13D0B0F1A06F10D00124D0
:100E30000FE0386840F40030386009E00198002184
:100E400001F0DEFD03E00098002101F069FE044698
:100E500094B126462868DFF878B2C0430BF1200B26
:100E600080011FD4E86CD8B110280FD0202812D0F0
:100E7000302815D0012414E0D5F8A820D8F80010A7
:100E800021F0E0611143C8F80010E3E7386840F44E
:100E90000030386004E00198022101F0B1FD044601
:100EA00074B126462888C043C0042BD4E86DB0F541
:100EB000005F20D00DDCA0B1B0F5805F0FD115E050
:100EC000EA6CDBF8001021F030011143CBF8001080
:100ED000E8E7B0F5405F13D0B0F5804F10D00124A3
:100EE0000FE0386840F40030386009E001980021D4
:100EF00001F086FD03E00098002101F011FE044698
:100F00008CB126462888C043800429D4286EB0F5C9
:100F1000403F23D010DC08B3B0F5803F14D0B0F5CB
:100F2000003F0FD115E0EA6DDAF8001021F4E0413E
:100F30001143CAF80010E5E7B0F5802F0ED0B0F5E8
:100F4000A02F0BD001240AE00198012101F058FDE7
:100F500003E00098012101F0E3FD044694B1264628
:100F60002888C04340042AD4D5F8AC00B0F1405FD3
:100F700023D010DC08B3B0F1805F14D0B0F1005F73
:100F80000FD115E02A6EDAF8001021F4E0211143A8
:100F9000CAF80010E4E7B0F1804F0ED0B0F1A04FD6
:100FA0000BD001240AE00198012101F029FD03E0A2
:100FB0000098012101F0B4FD044674B1264628884A
:100FC000C04300041FD4E86ED8B1B0F1805F0ED0EA
:100FD000B0F1005F10D0012414E0D5F8AC20D8F8AF
:100FE000001021F0E0411143C8F80010E7E738682D
:100FF00040F40030386004E00198012101F000FD68
:10100000044674B126462868C043C0011ED4A86CAB
:10101000D0B101280ED0022811D0032814D0012409
:1010200013E0EA6EDAF8001021F040511143CAF8DB
:101030000010E8E7386840F40030386004E00198B8
:10104000022101F0DDFC04466CB126462868C0434D
:10105000400255D41F48016841F480710160FFF7D8
:1010600099FB81460EE0AA6CDBF8001021F0030129
:101070001143CBF80010E9E7FFF78CFBA0EB090068
:1010800064283BD813480068C005F5D5BCBBDFF821
:101090004090B5F8B01009F14409D9F8000001F406
:1010A000407100F44070884211D0D9F80010D9F88E
:1010B000002021F4407142F48032C9F80020D9F8B0
:1010C000002022F48032C9F80020C9F8001003E0A3
:1010D0002C44025800480258D5F8B000B0F5807F83
:1010E00019D1FFF757FB029011E000BFFFF752FB49
:1010F0000299411A41F28830814208D903242646D8
:101100002878DFF81494C043C00721D03CE0D9F818
:1011100000008007EAD5D5F8B010C1F301200328FC
:10112000FE480DD0016821F47C510160B5F8B02073
:10113000D9F80010C2F30B021143C9F80010DFE721
:10114000F74A036802EA111223F47C511143ECE7D9
:10115000A86F182816D005DCA0B1082808D01028E0
:1011600004D10AE020280DD028280BD001240AE061
:101170000198012101F044FC03E00098012101F0F5
:10118000CFFC044664B126462878C04380071ED4AD
:10119000686F062819D2DFE800F0160C1116161633
:1011A000AA6FD9F8001021F038011143C9F80010D6
:1011B000EAE70198012101F023FC03E000980121F6
:1011C00001F0AEFC04467CB100E0012426462878FC
:1011D000C04340071FD4D5F89000062819D2DFE895
:1011E00000F0160C111616166A6FD9F8001021F0CF
:1011F00007011143C9F80010E9E70198012101F046
:10120000FFFB03E00098012101F08AFC0446A4B131
:1012100000E0012426462878C04380062BD4D5F868
:101220008C00B0F1405F24D011DC10B3B0F1805FCE
:1012300015D0B0F1005F10D116E0D5F89020D8F8A5
:10124000001021F007011143C8F80010E3E7B0F1E6
:10125000804F0ED0B0F1A04F0BD001240AE00198CE
:10126000002101F0CDFB03E00098022101F058FCC1
:10127000044694B126462878C04340062BD4D5F8BE
:101280009800B0F5406F24D011DC10B3B0F5806F3A
:1012900015D0B0F5006F10D116E0D5F88C20D9F834
:1012A000001021F0E0411143C9F80010E3E7B0F568
:1012B000805F0ED0B0F5A05F0BD001240AE001984A
:1012C000002101F09DFB03E00098022101F028FCC1
:1012D000044694B126462878C04300062BD4D5F89E
:1012E0009C00B0F5C04F24D011DC10B3B0F5005F06
:1012F00015D0B0F5804F10D116E0D5F89820D8F869
:10130000001021F4E0511143C8F80010E3E7B0F5F4
:10131000004F0ED0B0F5204F0BD001240AE0019809
:10132000002101F06DFB03E00098022101F0F8FBC1
:10133000044654B126462878C04300071ED4D5F889
:101340008000B0F5805F0AD00FE0D5F89C20D8F877
:10135000001021F460411143C8F80010EBE7009839
:10136000022101F0DDFB00B10126D5F88020D9F87B
:10137000001021F440511143C9F800102878C043EF
:10138000C00613D4D5F89400B0F5807F05D100983D
:10139000022101F0C5FB00B10126D5F89420D8F850
:1013A000001021F440711143C8F800102868C043B0
:1013B000000316D4D5F8A00038B1B0F5803F09D0AD
:1013C000B0F5003F0BD001240AE00198002101F0A4
:1013D00017FB03E00098022101F0A2FB04468CB148
:1013E00026462868C043400322D4D5F88400B0F5CF
:1013F000801F11D0B0F5001F13D0B0F5401F15D0DD
:10140000012414E0D5F8A020D8F8001021F44031D0
:101410001143C8F80010E4E7386840F40030386041
:1014200004E00098012101F07BFB04465CB12646F4
:101430002868C043C0031CD4286D70B1B0F5803F4C
:1014400010D0012414E0D5F88420D9F8001021F43C
:1014500040111143C9F80010EAE7386840F4003041
:10146000386004E00198022101F0CAFA0446DCB1B8
:1014700026462868C043800005D40098022101F068
:101480004FFB00B101262868C04380031BD4E86FDE
:10149000B8B1B0F5807F10D0B0F5007F11D0B0F5B5
:1014A000407F0ED001240DE02A6DDBF8001021F4FE
:1014B00080311143CBF80010DBE7386840F400308E
:1014C00038607CB326462868C043C00207D42A6F20
:1014D000DAF8001021F000411143CAF80010286822
:1014E000C043800207D4AA6EDAF8001021F08071A0
:1014F0001143CAF800102868C043400009D40748C7
:10150000016821F4004101600168D5F8B42011435D
:1015100001602868C04306E0544402581044025851
:10152000CFFFFF001DE007D46A6DDBF8001021F04B
:1015300040511143CBF800102868C043000208D482
:10154000D5F88820D9F8001021F440011143C9F8DA
:10155000001028790024C04300F00100204309D086
:101560000EE0EA6FD9F8001021F440711143C9F878
:101570000010A8E70198002101F042FA00B10646E8
:101580002879C04300F00200204305D101980121D1
:1015900001F036FA00B106462879C04300F0040095
:1015A000204305D10198022101F02AFA00B1064634
:1015B0002879C04300F00800204305D1009800219D
:1015C00001F0AEFA00B106462879C04300F01000E1
:1015D000204305D10098012101F0A2FA00B106468E
:1015E0002879C04300F02000044304D10098022170
:1015F00001F096FA00B916B10120BDE8FE8F002077
:10160000FBE700002DE9F05F04000F467ED0DFF815
:101610003882D8F8000000F00F00B8420CD2D8F899
:10162000001021F00F013943C8F80010D8F800006D
:1016300000F00F00B84269D12078844D40070AD5E8
:101640002069296801F07001884204D9296821F0D5
:1016500070010143296020787C4E361D00070AD5B1
:101660006069316801F07001884204D9316821F065
:101670007001014331602078C0060AD5A069316845
:1016800001F4E061884204D9316821F4E06101434A
:1016900031602078DFF8B4B180060BF1080B0CD56F
:1016A000E1695846DBF8002002F07002914204D94B
:1016B000026822F070020A430260207880070AD58F
:1016C000E068296801F00F01884204D9296821F0F7
:1016D0000F01014329602078C0073ED05B49A26812
:1016E0002868183920F47060104328606068022868
:1016F00018D0032819D00968012819D049070029F2
:101700004ADADFF848A1AAF1080A00E044E0DAF872
:10171000002022F007020243CAF80020FFF73AF83F
:10172000814612E009688903E9E709688901E6E76B
:10173000C905E4E7FFF72EF8A0EB090141F2883074
:10174000814202D90320BDE8F09F6168DAF8000009
:1017500000F03800B0EBC10FECD1207880070AD53B
:10176000E068296801F00F01884204D2296821F05D
:101770000F0101432960D8F80010404601F00F0125
:10178000B9420BD9016821F00F01394301600068AB
:1017900000F00F00B84201D00120D4E720784007C4
:1017A0000AD52069296801F07001884204D22968AD
:1017B00021F0700101432960207800070AD5606993
:1017C000316801F07001884204D2316821F0700163
:1017D000014331602078C0060AD5A069316801F460
:1017E000E061884204D2316821F4E0610143316054
:1017F000207880060CD5E1695846DBF8002002F01D
:101800007002914204D2026822F070020A43026020
:1018100000F09AF80E492A682B68C2F3032203F0FD
:101820000F038A5CC95C02F01F0201F01F01D04067
:10183000084A20FA01F1116007490860074800686A
:10184000BDE8F05FFEF7E2BF0020005218440258E6
:1018500020390008100000240C000024040000249B
:1018600070B5144C3F220260124A24680832131DDE
:10187000114D04F00704446016681C1D06F47066E0
:101880008660166806F00F06C660126802F07002E5
:1018900002611A6802F0700242611A6802F4E062A2
:1018A0008261226802F07002C261286800F00F00B5
:1018B000086070BD104402580020005230B500F09E
:1018C00043F80B4A0B490C4B15681468C5F3032207
:1018D00004F00F048A5C095D02F01F0201F01F0191
:1018E000D040064A20FA01F119601060084630BD68
:1018F0001844025820390008100000240C0000246D
:1019000000B5FFF7DBFF05490968054AC1F302117D
:10191000515C01F01F01C84000BD00001C4402588A
:101920002039000800B5FFF7C9FF05490968054AD5
:10193000C1F30221515C01F01F01C84000BD00004D
:101940001C44025820390008454970B545480968CB
:10195000434B103B11F0380208D00111082A03D084
:10196000102A0BD0182A0BD0084670BD19688906BA
:10197000FBD51968C1F3C101C84070BD3A4870BDBC
:101980003749374D18310C1D24350A680968266817
:101990002D6802F0030406F00102C1F30511C5F33E
:1019A000CC0515FB02F200EE102AB8EE400AE9B3AE
:1019B0002F4ADFED2E0AB7EE001A6CB1DFED2D1ABB
:1019C000012C01D0022C43D002EE101A1068F8EE60
:1019D000422A81EEA22A1EE01C68A40611D51B68CB
:1019E00001EE901A1168C3F3C103F8EE612AD840E2
:1019F00001EE900AC1F30800F8EE611A81EEA22A06
:101A00000BE001EE901ADFED1C2A00BFF8EE611A20
:101A1000106882EEA12AC0F3080001EE900AF8EEE9
:101A2000611A40EE201A31EE810A00E015E022EE44
:101A3000000A1068C0F34620401C00EE900AF8EE41
:101A4000600A80EE201ABCEEC10A10EE100A70BDCA
:101A500001EE901ADFED092AD8E7002070BD0000E2
:101A6000104402580090D00340787D0100000039F6
:101A7000304402580024744A0024744C20BCBE4BED
:101A80002DE9F05F04007DD0FF4F2078FE4D183720
:101A9000DFF8F483103DC00748D0D8F8000039685B
:101AA00000F03800102815D0182803D101F00300E9
:101AB00002280FD06068B0F5803F12D010B1B0F5A9
:101AC000A02F18D0286820F480302860286820F4DF
:101AD000802009E02868800328D560680028D2D0DB
:101AE00024E0286840F480302860606888B1FEF700
:101AF00051FE064609E0286840F480202860F0E79F
:101B0000FEF748FE801B64287ED828688003F7D53E
:101B10000CE0FEF73FFE064605E000BFFEF73AFE8A
:101B2000801B6428F0D828688003F7D420788007C9
:101B300056D5D8F80000DFF85093396810F0380017
:101B4000A9F10C090ED0182801D188070AD0E06845
:101B5000A8B3296821F0190101432960FEF71AFE94
:101B6000064628E02868400702D5E06800288AD0A9
:101B7000E168286820F0190008432860FEF70AFE93
:101B8000064606E0D2E000BFFEF704FE801B0228F6
:101B9000BAD828684007F7D5217CD9F8002022F070
:101BA000FE4242EA0161C9F8001019E0FEF7F2FDB9
:101BB000801B0228A8D828684007F7D5ECE7FFE784
:101BC000286820F001002860FEF7E4FD064604E0E6
:101BD000FEF7E0FD801B022896D828684007F7D45E
:101BE0002078C00646D5D8F80000DFF89C92396806
:101BF00000F03800A9F10409082812D0182805D1EE
:101C000001F00300012800E0CEE00AD0E0690028DE
:101C1000286820D040F080002860FEF7BBFD064613
:101C200015E02868C00502D5E06980287ED194F8C7
:101C30002010D9F8002022F07C5242EA0161C9F854
:101C4000001017E0FEF7A6FD801B0228A0D8286828
:101C5000C005F7D5EBE720F080002860FEF79AFD7D
:101C6000064604E0FEF796FD801B022890D82868FF
:101C7000C005F7D42078000729D58348616964300E
:101C800000298146016811D041F001010160FEF791
:101C900081FD064605E000BFFEF77CFD801B0228A3
:101CA00088D8D9F800008007F6D510E021F00101AE
:101CB0000160FEF76FFD064605E000BFFEF76AFD16
:101CC000801B022870D8D9F800008007F6D420784D
:101CD000800623D5A0690028286810D040F48050E1
:101CE0002860FEF757FD064605E000BFFEF752FDEF
:101CF000801B022858D828688004F7D50EE020F40D
:101D000080502860FEF746FD064604E0FEF742FDDF
:101D1000801B022848D828688004F7D42078400720
:101D200051D5DFF86891D9F8001000E015E141F4D1
:101D30008071C9F80010FEF72DFD064605E000BFD2
:101D4000FEF728FD801B64282ED8D9F80000C005B6
:101D5000F6D54D4EA068603601280AD008B1052896
:101D600013D0306820F001003060306820F00400AB
:101D700002E0306840F001003060A06841F2883A2B
:101D800098B1FEF707FD81460AE0306840F0040094
:101D90003060EEE7FEF7FEFCA0EB0901514503D8E9
:101DA00030688007F6D50EE072E0FEF7F3FC81465E
:101DB00006E000BFFEF7EEFCA0EB0901514567D835
:101DC00030688007F6D4606A00287CD0DFF8B8A0BD
:101DD000D8F800100AF1200A4FF6F87B0AF104083F
:101DE000C1F3C2010329AAF104096DD002282868B1
:101DF00020F08070286003D0FEF7CCFC044681E020
:101E0000FEF7C8FC064604E0FEF7C4FC801B02286F
:101E100075D828688001F7D4E26A40F2F331386857
:101E200054F8283F884340EA021018433860217B69
:101E30004FF4FE0C22894FF0FE47208A4902267D8E
:101E4000521E401EA1F5007189B2C2F3080211436F
:101E5000761E0CEA00400143484607EA0662114339
:101E6000CAF80010D9F8001021F00101C9F80010DB
:101E7000D8F80030266A23EA0B0343EAC601C8F803
:101E80000010D9F8001004E010440258004802582D
:101E900035E0A26921F00C011143C9F80010016876
:101EA000E26921F0020111430160016841F48031CF
:101EB0000160016841F400310160016841F4802152
:101EC0000160016801E06CE020E041F00101016087
:101ED000286840F080702860FEF75CFC044604E04F
:101EE000FEF758FC001B022809D828688001F7D5A6
:101EF00057E000BFFEF74EFC001B022802D903206A
:101F0000BDE8F09F28688001F4D44AE039680128D0
:101F1000DAF8000021D0A26A01F0030393421CD139
:101F2000E26AC1F305118A4217D1216BC0F308029E
:101F3000491E8A4211D1616BC0F34622491E91426B
:101F40000BD1A16BC0F30642491E914205D1E16B52
:101F5000C0F30660491E814201D00120D0E7A16C88
:101F60004646D8F80000C0F3CC00814219D0D9F819
:101F700000004D4620F00100C9F80000FEF70AFC01
:101F80004FEA0007FEF706FCB842FBD0A26C3068AF
:101F900020EA0B0040EAC2003060286840F00100EF
:101FA00028600020ACE7704770477047F0B590F8A4
:101FB0003C20012A41D0224E012480F83C400222DC
:101FC00080F83D2002681F4D5368B242D2F808C025
:101FD00001D0AA4203D14F6823F470033B430F683A
:101FE00023F070031F4357600268B24219D0B2F168
:101FF000804F16D0144B9A4213D0144B9A4210D0F3
:10200000134B9A420DD0AA420BD0124B9A4208D0E1
:10201000114B9A4205D0114B9A4202D0104B9A4272
:1020200004D189682CF0800319439160002180F865
:102030003D4080F83C100846F0BD0220F0BD000095
:10204000000001400004014000040040000800407E
:10205000000C0040001800400040014000E000403B
:1020600000E4004010B5040003D094F83D0010B126
:1020700007E0012010BD002084F83C00204600F05D
:1020800022F8022084F83D002068211D00F09EFE09
:10209000012084F8480084F83E0084F83F0084F86A
:1020A000400084F8410084F8420084F8430084F83A
:1020B000440084F8450084F8460084F8470084F81A
:1020C0003D00002010BD704790F83D10012901D05F
:1020D000012070471A4A022180F83D100168CB6840
:1020E00043F00103CB60006890421AD0B0F1804FFA
:1020F00017D01449884214D01349884211D013498B
:1021000088420ED0124988420BD01249884208D02A
:102110001149884205D01149884202D010498842AD
:1021200007D181680F4A1140062906D0B1F5803FDA
:1021300003D0016841F001010160002070470000F8
:10214000000001400004004000080040000C004076
:1021500000040140001800400040014000E0004041
:1021600000E400400700010070472DE9F0410446FB
:1021700000680027C6680569A90713D5B10711D5FE
:10218000FA1E0261012121772068806980072046BC
:1021900002D0FFF7E9FF04E000F0DEF8204600F08F
:1021A000E7F92777680716D5700714D5226802204B
:1021B0006FF00401116120772068806910F4407F7E
:1021C000204602D0FFF7D0FF04E000F0C5F820461B
:1021D00000F0CEF92777280715D5300713D52268E8
:1021E00004206FF00801116120772068C069800722
:1021F000204602D0FFF7B8FF04E000F0ADF820461B
:1022000000F0B6F92777E80616D5F00614D522684F
:1022100008206FF01001116120772068C06910F468
:10222000407F204602D0FFF79FFF04E000F094F8C3
:10223000204600F09DF92777E80708D0F00706D080
:1022400021686FF001000861204600F093F928062C
:1022500001D4A80408D5300606D521686FF40250D1
:1022600008612046FFF7A0FEE80508D5300606D530
:1022700021686FF4807008612046FFF794FE6806BD
:1022800008D5700606D521686FF040000861204629
:1022900000F07AF9A8060AD5B00608D521686FF0D3
:1022A000200008612046BDE8F041FFF77EBEBDE892
:1022B000F081000030B587B0044614216846FEF76F
:1022C000ECF8246800221F4D02231D491E48AC4231
:1022D00009D10C6844F002040C60096801F00201A5
:1022E000059110210BE0194DAC4213D10C6844F05C
:1022F00002040C60096801F002010591A915009122
:10230000CDE90132CDE90323694600BFFEF72EF97E
:1023100007B030BD0E488442FAD1086840F0400052
:102320000860086800F040000590601400900D21DE
:102330000848CDE90132CDE903216946E6E700000E
:10234000E044025800040040000402580008004025
:1023500000E0004000180258704770B5044690F83D
:102360003C0000260D4601280BD0012084F83C00DB
:102370000C2A4AD007DC82B1042A20D0082A06D1D0
:1023800031E0022070BD102A53D0142A63D00126F8
:10239000002084F83C00304670BD206800F088FDC5
:1023A0002068816941F0080181612068816921F01C
:1023B0000401816120682A698169114311E0206864
:1023C00000F0C8FD2068816941F4006181612068E6
:1023D000816921F48061816120682969826942EA0A
:1023E00001218161D4E7206800F000FE2068C16906
:1023F00041F00801C1612068C16921F00401C16197
:1024000020682A69C169114311E0206800F03AFE92
:102410002068C16941F40061C1612068C16921F48B
:102420008061C16120682969C26942EA0121C161F4
:10243000AEE7206800F062FE2068416D41F00801BF
:1024400041652068416D21F00401416520682A69D9
:10245000416D114311E0206800F08AFE2068416D53
:1024600041F4006141652068416D21F4806141655E
:1024700020682969426D42EA0121416588E710B56B
:10248000040003D094F83D0010B107E0012010BD16
:10249000002084F83C00204600F022F8022084F856
:1024A0003D002068211D00F091FC012084F84800C7
:1024B00084F83E0084F83F0084F8400084F841002E
:1024C00084F8420084F8430084F8440084F845000E
:1024D00084F8460084F8470084F83D00002010BDD1
:1024E00008B51F4A01681F4891420ED1016841F0AA
:1024F0000201016000680022114600F00200009015
:102500001D20FEF72FFA1D2024E0174A91420ED11C
:10251000016841F00401016000680022114600F0EA
:10252000040000901E20FEF71DFA1E2012E00F4846
:10253000814213D10B48001D016841F08071016098
:1025400000680022114600F080700090A120FEF784
:1025500009FAA120BDE80840FEF7F6B908BD000061
:1025600000040040E84402580008004000E0004039
:102570007047000000680349884201D1FEF710B996
:102580007047000000000140704730B590F884109B
:10259000012918D0012280F884202421C0F8881055
:1025A0000022202401680B680D6823F0005325F0F9
:1025B00001050D60426601680B60C0F8884080F834
:1025C0008420104630BD022030BD70B5044690F81E
:1025D000840001281DD0012284F884202420C4F81E
:1025E000880020680568026822F001020260206805
:1025F000826822F060620A438260204600F0F2FDA9
:102600002268202100201560C4F8881084F8840016
:1026100070BD022070BD70B5044690F8840001289A
:102620001DD0012284F884202420C4F8880020686A
:102630000568026822F0010202602068826822F0C8
:1026400060420A438260204600F0CCFD22682021CF
:1026500000201560C4F8881084F8840070BD022042
:1026600070BD10B5040003D0D4F8880010B107E0A5
:10267000012010BD002084F88400204600F026F8D8
:102680002420C4F888002068016821F0010101605D
:10269000A06A10B1204600F0C7FD204600F0A8FE59
:1026A0000128E6D02068416821F49041416020680B
:1026B000816821F02A0181602068016841F00101F0
:1026C00001602046BDE8104000F012BE10B5B4B065
:1026D000044614212EA8FDF7E0FEB8216846FDF758
:1026E000DCFE1949206888422BD100201E90012170
:1026F0000446CDE900106846FEF7E6FA08B1FDF79A
:1027000032FF1248016841F010010160006800F0DA
:10271000100033900D481038016841F0010101604C
:1027200000682EAB022100F0010033904FF4C0602E
:10273000072283E8130006482EA9CDE93142FDF7B0
:1027400015FF34B010BD000000100140F0440258E5
:1027500000000258FEE700002DE9F04786B0142182
:102760006846FDF79AFE2F48016841F0800101603C
:10277000016801F080010591016841F001010160EB
:10278000016801F001010591016841F0400101601B
:10279000016801F040010591016841F0020101600A
:1027A000016801F002010591016841F0100101602A
:1027B00000684FF45046DFF87080002200F01000EF
:1027C000314605904046FDF7DFFFDFF860904FF49B
:1027D0003A77002239464846FDF7D6FFDFF850A089
:1027E000002201215046FDF7CFFF0024009601256D
:1027F00069464046CDE901540394FDF7B7FE0097C2
:102800006946CDE9015448460394FDF7AFFE0095B3
:102810006946CDE9015450460394FDF7A7FE06B082
:10282000BDE8F087E044025800180258000402583E
:102830000010025810B58AB0002468461C21079485
:1028400008940994FDF729FE16484FF6FF71144BC2
:102850008022C0E90034C0E9024104618261FFF7CF
:102860000EFE08B1FDF77FFE0E4807A907940994F4
:10287000FFF79CFB08B1FDF776FE60206946CDE9C5
:1028800000040848042202940494FFF766FD08B18E
:10289000FDF769FE0348FFF70DFD0AB010BD00000B
:1028A00000E00040AC00002410B58AB00024684667
:1028B0001C21079408940994FDF7EFFD16484FF684
:1028C000FF71144B8022C0E90034C0E90241046169
:1028D0008261FFF7D4FD08B1FDF745FE0E4807A958
:1028E00007940994FFF762FB08B1FDF73CFE6020F6
:1028F0006946CDE900040848002202940494FFF7D9
:102900002CFD08B1FDF72FFE0348FFF7D3FC0AB0FA
:1029100010BD0000000400401400002410B58AB06F
:10292000002468461C21079408940994FDF7B5FD1E
:1029300016484FF6FF71144B8022C0E90034C0E9FD
:10294000024104618261FFF79AFD08B1FDF70BFEB9
:102950000E4807A907940994FFF728FB08B1FDF773
:1029600002FE60206946CDE900040848082202946E
:102970000494FFF7F2FC08B1FDF7F5FD0348FFF7FB
:1029800099FC0AB010BD000000080040600000245F
:102990001848002110B5164C0C224FF4E1330460A6
:1029A000C0E90131C160C0E904128161C161016205
:1029B00041628162FFF755FE08B1FDF7D4FD0D4875
:1029C0000021FFF728FE08B1FDF7CDFD09480021E1
:1029D000FFF7FBFD08B1FDF7C6FD0648FFF7D5FD83
:1029E000002803D0BDE81040FDF7BDBD10BD0000BC
:1029F00000100140F8000024FEE7FEE770470000E9
:102A00002DE9F047454D044689464FF0000A2868F5
:102A1000C04380070AD0414E283E306820F08060D5
:102A20003060FDF7B7FE0746B04608E00120BDE87C
:102A3000F08700BFFDF7AEFEC01B022867D8D8F8AC
:102A400000000001F6D4206829684FF4FE0721F445
:102A50007C313E0241EA00302860207AA389B4F834
:102A600004C040022D4D2D495B1E227CACF1010CAF
:102A70001035091DA0F5007080B2521ECCF3080C71
:102A800007EA034340EA0C00184306EA02621043D7
:102A900028600868626920F0C000104308600A6876
:102AA000A06922F0200202430A60281D0A6822F071
:102AB00010020A6002684FF6F873E4699A4342EA2A
:102AC000C40202600868B9F1000F40F010020A6009
:102AD00011D00868B9F1010F11D040F4001008605E
:102AE000D8F80000444640F08060C8F80000FDF7C8
:102AF00051FE05460DE0086840F40020EFE740F481
:102B00008010ECE7FDF746FE401B022801D90320A8
:102B10008DE720680001F5D5504688E72844025823
:102B20002DE9F047454D044689464FF0000A2868D4
:102B3000C04380070AD0414E283E306820F08050C4
:102B40003060FDF727FE0746B04608E00120BDE8EB
:102B5000F08700BFFDF71EFEC01B022867D8D8F81B
:102B600000008000F6D4208829684FF4FE0721F089
:102B70007C713E0241EA00502860207AA389B4F8B3
:102B800004C040022D4D2D495B1E227CACF1010C8E
:102B90001835091DA0F5007080B2521ECCF3080C48
:102BA00007EA034340EA0C00184306EA02621043B6
:102BB00028600868626920F44060104308600A6871
:102BC000A06922F4007202430A60281D0A6822F4F8
:102BD00080720A6002684FF6F873E4699A4342EA29
:102BE000C40202600868B9F1000F40F480720A6004
:102BF00011D00868B9F1010F11D040F08070086061
:102C0000D8F80000444640F08050C8F80000FDF7B6
:102C1000C1FD05460DE0086840F48000EFE740F490
:102C20000000ECE7FDF7B6FD401B022801D90320A8
:102C30008DE720688000F5D5504688E72844025883
:102C400070477047F0B59DB04C216846FDF725FCF4
:102C5000202113A8FDF721FC0220FDF7B5FE1E4838
:102C6000016821F4404101600168002401F4404101
:102C70001B9101688904FCD54025022000900121A8
:102C80000C26CDE90315CDE909041123CDE90D107A
:102C9000F701CDE90F0604226846CDE90B23CDE903
:102CA0001147FEF7EDFE08B172B6FEE713AB3F2009
:102CB000032183E813004FF480621A95CDE916458D
:102CC00013A8CDE91852FEF79DFC002801D072B67A
:102CD000FEE71DB0F0BD0000184802582748F0B5C7
:102CE000274A016841F470010160106800F00F008C
:102CF000072804D2106820F00F00C01D1060214981
:102D00000020204C10340B681F4D43F001030B6072
:102D100020600B682B400B60136803F00F03072B38
:102D200004D9136823F00F03DB1D1360154C174AF9
:102D30001834174B261D371D2060124C154D2834B2
:102D40003060261D3860371D23603B1D35601C1D1B
:102D50003A60251D2E1D1860331D226028603260E8
:102D600018600A6843F2D204064B0B4D22F480220D
:102D700060330A6018602C60F0BD000088ED00E050
:102D800000200052004402587FEDF6EA8002010163
:102D9000000202020000FF01004000520148FFF75C
:102DA000E4B900008C0100240148FFF7DEB90000FF
:102DB000AC0000240148FFF7D8B90000140000243B
:102DC0000148FFF7D2B90000600000242DE9F04768
:102DD0002D4B4FF0804A2D4D026898422C4E2D4FBE
:102DE0002D4C09D0504507D0A84205D0B04203D0A1
:102DF000B84201D0A04205D1D1F804C022F070023F
:102E00004CEA0202DFF894C0DFF894809842DFF8C1
:102E1000949015D0504513D0A84211D0B0420FD095
:102E2000B8420DD0A0420BD0604509D0404507D034
:102E3000484505D01C4DA84202D01C4DA84203D1E4
:102E4000CD6822F440722A434D6922F080022A4361
:102E5000026098428A68C2620A68826207D0A04211
:102E600005D0604503D0404501D0484501D10969EE
:102E70000163012141610169C90703D0016921F0A2
:102E800001010161BDE8F08700000140000400403D
:102E900000080040000C00400004014000400140D8
:102EA000004401400048014000E0004000E40040D0
:102EB0002DE9F04FDFF88480214EDFF88890DFF8AD
:102EC00088B0026A036AB042DFF880A022F0020CE8
:102ED0001F4F23F001020262426885698B680C680B
:102EE00005EA080525F0030543EA0C0344EA050456
:102EF00007D0484505D0584503D0504501D0B842C9
:102F000005D1CD6823F008031D4325F00403B0422A
:102F100007D0484505D0584503D0504501D0B842A8
:102F200005D122F44076D1E9055235432A43426067
:102F30008461496841630362BDE8F08F8FFFFEFF43
:102F400000000140000401400040014000440140F5
:102F500000480140F0B5DFF87CE01F4C1F4D026ACD
:102F6000036AA04222F0200623F0100303624268A5
:102F70008369D1F808C00F6803EA0E0323F4407E8A
:102F800046EA0C134EEA072601D0A84206D1CF68C4
:102F900023F0800343EA071323F04003A0420AD042
:102FA000A84208D00E4CA04205D00E4CA04202D040
:102FB0000D4CA04207D1D1E9054522F4406242EA16
:102FC000840242EA85024260866149688163036245
:102FD000F0BD0000FF8FFFFE000001400004014033
:102FE000004001400044014000480140F0B5DFF8D6
:102FF0007CE01F4D1F4E026A036AA84222F400774C
:1030000023F4807303624368C269D1F808C002EAFE
:103010000E020C6822F0030E47EA0C2244EA0E046A
:1030200001D0B04206D1CF6822F4006242EA072202
:1030300022F48062A8420AD0B04208D00E4DA842C5
:1030400005D00E4DA84202D00D4DA84207D1D1E9BE
:10305000055623F4405343EA051343EA061343603D
:10306000C4614968C1630262F0BD00008FFFFEFFCA
:1030700000000140000401400040014000440140C4
:1030800000480140F0B5046A026A22F480520262EC
:103090004268C36924F40054DFF848C08E680D68A4
:1030A00003EA0C03104F23F4407344EA0634B84299
:1030B00043EA05230BD00D4DA84208D00C4DA84281
:1030C00005D00C4DA84202D00B4DA84204D14D6949
:1030D00022F4804242EA85124260C3614968016479
:1030E0000462F0BDFF8FFFFE0000014000040140BC
:1030F000004001400044014000480140F0B5164F37
:10310000164B026A046A984222F4003524F4803394
:1031100003624268436D0E890C6803EA070344EAC0
:10312000030445EA06430BD00D4DA84208D00D4DCF
:10313000A84205D00C4DA84202D00C4DA84204D1A3
:103140004D6922F4803242EA0522426044654968B2
:1031500081650362F0BD00008FFFFEFF00000140AB
:10316000000401400040014000440140004801408B
:10317000F0B5164F164B026A046A984224F4801385
:10318000036222F400144268436D0E890D6803EA5D
:10319000070344EA065443EA05230BD00D4DA84229
:1031A00008D00D4DA84205D00C4DA84202D00C4DC0
:1031B000A84204D14D6922F4802242EA852242606D
:1031C00043654968C1650462F0BD0000FF8FFFFEE2
:1031D0000000014000040140004001400044014063
:1031E0000048014030B5416EB9B101680D4B03F1A3
:1031F00008048A688968C2F34262490F5D5C615CB9
:103200002D01B5FBF1F1A0F86A10995CA25C0901EF
:10321000B1FBF2F1A0F8681030BD0121A0F86A10EE
:10322000F8E700001039000890F82810090706D5C3
:103230000168836B4A6822F400421A434A6090F89E
:103240002810C90706D00168C36A4A6822F4003210
:103250001A434A6090F82810890706D50168036B65
:103260004A6822F480321A434A6090F828104907CD
:1032700006D50168436B4A6822F480221A434A60EB
:1032800090F82810C90606D50168C36B8A6822F435
:1032900080521A438A6090F82810890606D5016882
:1032A000036C8A6822F400521A438A6090F828104E
:1032B000490611D50168436C4A6822F480121A430A
:1032C0004A60416CB1F5801F06D10168836C4A6881
:1032D00022F4C0021A434A6090F82810090606D565
:1032E0000168C26C486820F40020104348607047B1
:1032F0002DE9F84300250446C0F89050FDF74AFA3E
:103300008046206820266FF07E470068000713D5AE
:103310000022434631042046009700F057FA58B186
:10332000216851E8000F20F0800041E80002002AE7
:10333000F6D1C4F8886021E020680068400722D5F3
:10334000002243464FF480012046009700F03EFAE9
:10335000C8B1206850E8001F21F4907140E80012C5
:10336000002AF6D12068083050E8001F21F0010142
:1033700040E80012002AF5D1C4F88C60032084F8DC
:103380008450BDE8F883C4F88860C4F88C60E566B2
:103390002567002084F88450F3E7000010B5026828
:1033A00052E8001F21F4907142E80013002BF6D17F
:1033B0000E4B0268083252E8001F194042E8001420
:1033C000002CF6D1C16E012908D1026852E8001F15
:1033D00021F0100142E80013002BF6D10021202239
:1033E000C0F88C20C166416710BD0000FEFFFFEFF2
:1033F0002DE9F04304468068E24E87B0E24B216835
:10340000D4E90427D4F81CC010430A68002547EA11
:103410000C073843324002430A602068E268416882
:1034200021F44051114341602268A1699A4201D0C0
:10343000206A01439668DFF854C3D54FD54806EAA1
:103440000C060E4396602168666ACA6A22F00F0273
:103450003243CA622268BA420ED1006800F03800D6
:1034600018286FD07ADCB8B308286CD010286BD13C
:103470008BE0282868D18EE0C7498A4209D10068CC
:1034800000F0070006285FD2DFE800F0507D7F8162
:103490008385C2498A4209D1006800F007000628E6
:1034A0007BD2DFE800F0437072747678BC498A42C0
:1034B00009D1006800F0070006286ED2DFE800F0AE
:1034C00036636567696BB7498A420BD1006800F0C3
:1034D0000700062861D200E043E0DFE800F027544F
:1034E00056585A5CB0498A4206D1006800F038004C
:1034F00018284CD0B7DD31E0AC498A4209D10068C8
:1035000000F00700062848D2DFE800F0103D3F41F8
:103510004345A7498A420BD1006800F007000628FE
:103520003BD2DFE800F0033032343638002035E09B
:10353000A0498A4209D1006800F03800182826D036
:1035400091DD0BE023E01EE027E09B498A420AD18F
:10355000006800F03800182819D084DD202888D1B0
:103560001CE001201AE09A4217D18A48001D006829
:1035700000F00700062810D2DFE800F00305070975
:103580000B0D02200AE0042008E0082006E01020CD
:1035900004E0202002E0402000E080208749DFF89E
:1035A00020829A42874A4FF400434FEA21174FF096
:1035B00000064ED110281AD006DC022809D00428B3
:1035C0000BD008287ED10DE020283ED0402879D1AC
:1035D0003DE0FDF723FA014610E06846FDF730FABA
:1035E00001990BE003A8FDF7CDFA049906E01068F5
:1035F000800605D51068C0F3C100C140002970D015
:10360000606A676838F8102007EB4703B1FBF2F0F7
:10361000834257D8B0EB073F54D8002308461946D9
:10362000FCF7C4FE02467808130E120243EA012199
:1036300010183A4671410023FCF7B8FE624AA0F523
:10364000407191423ED821688FE03946D8E719464B
:10365000D6E7D4F81CC04FF6EF799C4546D1082830
:1036600019D005DC58B101280CD0042875D10DE023
:10367000102815D0202835D040286ED134E0FEF730
:103680003FF901E0FEF74EF9014610E06846FDF70C
:10369000D7F901990BE003A8FDF774FA049906E045
:1036A0001068800604D51068C0F3C100C140C1B1E4
:1036B000636A606838F81330B1FBF3F1490001EB3D
:1036C000500100E049E0B1FBF0F0A0F110014945E4
:1036D00043D84FF6F0732168C0F3420218401043FC
:1036E00043E043E03946E3E71946E1E7082819D00B
:1036F00005DC58B101280CD004282ED10DE010288B
:1037000015D020282BD0402827D12AE0FEF7F8F842
:1037100001E0FEF707F9014610E06846FDF790F971
:1037200001990BE003A8FDF72DFA049906E0106853
:10373000800604D51068C0F3C100C140B1B1636A0E
:10374000606838F81330B1FBF3F101EB5001B1FBC5
:10375000F0F0A0F11001494505D9012506E03946F0
:10376000EDE71946EBE7216880B2C8600120A4F8B4
:103770006A00A4F8680028466667A66707B0BDE837
:10378000F0830000F369FFCF000C0058FFF4FF1135
:1037900000100140544402580044004000480040DA
:1037A000004C0040005000400014014000780040F0
:1037B000007C004000180140001C01400090D00334
:1037C000F838000800440258FFFC0F002DE9F047CC
:1037D000994617460D460446089E4FF0000833E010
:1037E000701C31D0FCF7D6FFA0EB0900B04218D80E
:1037F000BEB120680168490726D5802D24D0402D10
:1038000022D0C169C94309070DD4082505622046A5
:10381000FFF7C4FDC4F89050012084F88480BDE80F
:10382000F0870320FBE7C069C04300050CD4216882
:103830004FF4006008622046FFF7B0FD2021C4F875
:10384000901084F88480ECE72068C06935EA0000B5
:1038500004D00020B842C3D00020E0E70120F9E7FF
:10386000FEE7090700284FEA116104DB00F1E020C0
:1038700080F80014704700F00F0000F1E02080F89D
:10388000141D70471FB50024009401940294039402
:10389000FDF72CF801208DF80C001F218DF8081081
:1038A00087228DF809208DF80D008DF800006846FC
:1038B0008DF80A408DF80E408DF8014001948DF886
:1038C0000B408DF80F40FCF7E3FF0420FDF71CF8D8
:1038D000FCF76EFFFFF7B6F9FEF73EFFFEF7E4FFD9
:1038E000FFF71CF8FEF7A6FFFFF752F8FEE74FF0D0
:1038F0004070E1EE100A704701000200040006006B
:1039000008000A000C0010002000400080000001A8
:10391000010101030701000008040204080101017C
:103920000000000001020304010203040607080965
:10393000603900080000002414000000080300089B
:103940006039000800000020001000002403000877
:103950007439000814000024240400002403000823
:103960000100000010000000000000000090D003E3
:043970000090D003F0
:04000005080002CD20
:00000001FF
